{
  "_format": "hh-sol-artifact-1",
  "contractName": "WavePortal",
  "sourceName": "contracts/WavePortal.sol",
  "abi": [
    {
      "inputs": [],
      "stateMutability": "payable",
      "type": "constructor"
    },
    {
      "anonymous": false,
      "inputs": [
        {
          "indexed": true,
          "internalType": "address",
          "name": "from",
          "type": "address"
        },
        {
          "indexed": false,
          "internalType": "uint256",
          "name": "timestamp",
          "type": "uint256"
        },
        {
          "indexed": false,
          "internalType": "string",
          "name": "message",
          "type": "string"
        }
      ],
      "name": "NewWave",
      "type": "event"
    },
    {
      "inputs": [],
      "name": "getLastWaveAt",
      "outputs": [
        {
          "internalType": "uint256",
          "name": "",
          "type": "uint256"
        }
      ],
      "stateMutability": "view",
      "type": "function"
    },
    {
      "inputs": [],
      "name": "getLastWaver",
      "outputs": [
        {
          "internalType": "address",
          "name": "",
          "type": "address"
        }
      ],
      "stateMutability": "view",
      "type": "function"
    },
    {
      "inputs": [],
      "name": "getMaxWaves",
      "outputs": [
        {
          "internalType": "uint256",
          "name": "",
          "type": "uint256"
        }
      ],
      "stateMutability": "view",
      "type": "function"
    },
    {
      "inputs": [],
      "name": "getSenderWaves",
      "outputs": [
        {
          "internalType": "uint256",
          "name": "",
          "type": "uint256"
        }
      ],
      "stateMutability": "view",
      "type": "function"
    },
    {
      "inputs": [],
      "name": "getTopWaver",
      "outputs": [
        {
          "internalType": "address",
          "name": "",
          "type": "address"
        }
      ],
      "stateMutability": "view",
      "type": "function"
    },
    {
      "inputs": [],
      "name": "getTotalWaves",
      "outputs": [
        {
          "internalType": "uint256",
          "name": "",
          "type": "uint256"
        }
      ],
      "stateMutability": "view",
      "type": "function"
    },
    {
      "inputs": [],
      "name": "getWavesArray",
      "outputs": [
        {
          "components": [
            {
              "internalType": "address",
              "name": "waver",
              "type": "address"
            },
            {
              "internalType": "string",
              "name": "message",
              "type": "string"
            },
            {
              "internalType": "uint256",
              "name": "timestamp",
              "type": "uint256"
            }
          ],
          "internalType": "struct WavePortal.Wave[]",
          "name": "",
          "type": "tuple[]"
        }
      ],
      "stateMutability": "view",
      "type": "function"
    },
    {
      "inputs": [
        {
          "internalType": "string",
          "name": "_message",
          "type": "string"
        }
      ],
      "name": "wave",
      "outputs": [],
      "stateMutability": "nonpayable",
      "type": "function"
    }
  ],
  "bytecode": "0x6080604052655af3107a40006009556200003d60405180606001604052806033815260200162001b8760339139620000fe60201b62000aae1760201c565b620000886040518060400160405280601881526020017f496e697469616c697a696e672074686520736565642e2e2e0000000000000000815250620000fe60201b62000aae1760201c565b6064444262000098919062000336565b620000a49190620003d3565b600081905550620000f86040518060400160405280601481526020017f496e697469616c20736565642073657420746f20000000000000000000000000815250600054620001a160201b62000b471760201c565b6200047a565b6200019e81604051602401620001159190620002c2565b6040516020818303038152906040527f41304fac000000000000000000000000000000000000000000000000000000007bffffffffffffffffffffffffffffffffffffffffffffffffffffffff19166020820180517bffffffffffffffffffffffffffffffffffffffffffffffffffffffff83818316178352505050506200024760201b60201c565b50565b620002438282604051602401620001ba929190620002e6565b6040516020818303038152906040527f9710a9d0000000000000000000000000000000000000000000000000000000007bffffffffffffffffffffffffffffffffffffffffffffffffffffffff19166020820180517bffffffffffffffffffffffffffffffffffffffffffffffffffffffff83818316178352505050506200024760201b60201c565b5050565b60008151905060006a636f6e736f6c652e6c6f679050602083016000808483855afa5050505050565b60006200027d826200031a565b62000289818562000325565b93506200029b8185602086016200039d565b620002a68162000469565b840191505092915050565b620002bc8162000393565b82525050565b60006020820190508181036000830152620002de818462000270565b905092915050565b6000604082019050818103600083015262000302818562000270565b9050620003136020830184620002b1565b9392505050565b600081519050919050565b600082825260208201905092915050565b6000620003438262000393565b9150620003508362000393565b9250827fffffffffffffffffffffffffffffffffffffffffffffffffffffffffffffffff038211156200038857620003876200040b565b5b828201905092915050565b6000819050919050565b60005b83811015620003bd578082015181840152602081019050620003a0565b83811115620003cd576000848401525b50505050565b6000620003e08262000393565b9150620003ed8362000393565b9250826200040057620003ff6200043a565b5b828206905092915050565b7f4e487b7100000000000000000000000000000000000000000000000000000000600052601160045260246000fd5b7f4e487b7100000000000000000000000000000000000000000000000000000000600052601260045260246000fd5b6000601f19601f8301169050919050565b6116fd806200048a6000396000f3fe608060405234801561001057600080fd5b50600436106100885760003560e01c8063449d46c01161005b578063449d46c01461010557806387ec9b8d146101215780639a2cdc081461013f578063f7091d511461015d57610088565b8063047c24041461008d5780632bce00e2146100ab5780632cda0909146100c95780633362a2d4146100e7575b600080fd5b61009561017b565b6040516100a291906110d9565b60405180910390f35b6100b36102cc565b6040516100c091906110be565b60405180910390f35b6100d1610357565b6040516100de9190611229565b60405180910390f35b6100ef6103a2565b6040516100fc9190611229565b60405180910390f35b61011f600480360381019061011a9190610e55565b6103ed565b005b610129610930565b60405161013691906110be565b60405180910390f35b6101476109bb565b6040516101549190611229565b60405180910390f35b6101656109e9565b6040516101729190611229565b60405180910390f35b60606008805480602002602001604051908101604052809291908181526020016000905b828210156102c357838290600052602060002090600302016040518060600160405290816000820160009054906101000a900473ffffffffffffffffffffffffffffffffffffffff1673ffffffffffffffffffffffffffffffffffffffff1673ffffffffffffffffffffffffffffffffffffffff1681526020016001820180546102289061140f565b80601f01602080910402602001604051908101604052809291908181526020018280546102549061140f565b80156102a15780601f10610276576101008083540402835291602001916102a1565b820191906000526020600020905b81548152906001019060200180831161028457829003601f168201915b505050505081526020016002820154815250508152602001906001019061019f565b50505050905090565b600061032f6040518060400160405280601381526020017f546865206c617374207761766572207761732000000000000000000000000000815250600360009054906101000a900473ffffffffffffffffffffffffffffffffffffffff16610be3565b600360009054906101000a900473ffffffffffffffffffffffffffffffffffffffff16905090565b600061039a6040518060400160405280601b81526020017f546865206d6f73742077617665732069732063757272656e746c790000000000815250600454610b47565b600454905090565b60006103e56040518060400160405280601281526020017f546865206c617374207761766520776173200000000000000000000000000000815250600254610b47565b600254905090565b42610384600760003373ffffffffffffffffffffffffffffffffffffffff1673ffffffffffffffffffffffffffffffffffffffff1681526020019081526020016000205461043b919061133b565b1061047b576040517f08c379a000000000000000000000000000000000000000000000000000000000815260040161047290611209565b60405180910390fd5b42600760003373ffffffffffffffffffffffffffffffffffffffff1673ffffffffffffffffffffffffffffffffffffffff1681526020019081526020016000208190555060018060008282546104d1919061133b565b925050819055504260028190555033600360006101000a81548173ffffffffffffffffffffffffffffffffffffffff021916908373ffffffffffffffffffffffffffffffffffffffff1602179055506001600660003373ffffffffffffffffffffffffffffffffffffffff1673ffffffffffffffffffffffffffffffffffffffff1681526020019081526020016000206000828254610570919061133b565b925050819055506032600054116106b5576105c06040518060400160405280601f81526020017f25732068617320776f6e2061206e696365206c6974746c65207072697a65210081525033610be3565b476009541115610605576040517f08c379a00000000000000000000000000000000000000000000000000000000081526004016105fc906111c9565b60405180910390fd5b60003373ffffffffffffffffffffffffffffffffffffffff1660095460405161062d906110a9565b60006040518083038185875af1925050503d806000811461066a576040519150601f19603f3d011682016040523d82523d6000602084013e61066f565b606091505b50509050806106b3576040517f08c379a00000000000000000000000000000000000000000000000000000000081526004016106aa906111e9565b60405180910390fd5b505b600454600660003373ffffffffffffffffffffffffffffffffffffffff1673ffffffffffffffffffffffffffffffffffffffff16815260200190815260200160002054106107855733600560006101000a81548173ffffffffffffffffffffffffffffffffffffffff021916908373ffffffffffffffffffffffffffffffffffffffff160217905550600660003373ffffffffffffffffffffffffffffffffffffffff1673ffffffffffffffffffffffffffffffffffffffff168152602001908152602001600020546004819055505b600860405180606001604052803373ffffffffffffffffffffffffffffffffffffffff16815260200183815260200142815250908060018154018082558091505060019003906000526020600020906003020160009091909190915060008201518160000160006101000a81548173ffffffffffffffffffffffffffffffffffffffff021916908373ffffffffffffffffffffffffffffffffffffffff1602179055506020820151816001019080519060200190610844929190610d4a565b506040820151816002015550506064424461085f919061133b565b6108699190611472565b60008190555061089360405180606001604052806021815260200161165e60219139600054610b47565b3373ffffffffffffffffffffffffffffffffffffffff167f5f7e16dc676677766a70e9c5628aa6c54ddb8b6e5188e2ae1e1f17f1ffbea71642836040516108db929190611244565b60405180910390a261092d60405180608001604052806049815260200161167f60499139600360009054906101000a900473ffffffffffffffffffffffffffffffffffffffff16600254600054610c7f565b50565b60006109936040518060400160405280601f81526020017f54686520686967686573742077617665722069732063757272656e746c792000815250600560009054906101000a900473ffffffffffffffffffffffffffffffffffffffff16610be3565b600560009054906101000a900473ffffffffffffffffffffffffffffffffffffffff16905090565b60006109e160405180606001604052806023815260200161163b60239139600154610b47565b600154905090565b6000610a696040518060400160405280601581526020017f596f757220746f74616c20776176657320617265200000000000000000000000815250600660003373ffffffffffffffffffffffffffffffffffffffff1673ffffffffffffffffffffffffffffffffffffffff16815260200190815260200160002054610b47565b600660003373ffffffffffffffffffffffffffffffffffffffff1673ffffffffffffffffffffffffffffffffffffffff16815260200190815260200160002054905090565b610b4481604051602401610ac291906110fb565b6040516020818303038152906040527f41304fac000000000000000000000000000000000000000000000000000000007bffffffffffffffffffffffffffffffffffffffffffffffffffffffff19166020820180517bffffffffffffffffffffffffffffffffffffffffffffffffffffffff8381831617835250505050610d21565b50565b610bdf8282604051602401610b5d929190611199565b6040516020818303038152906040527f9710a9d0000000000000000000000000000000000000000000000000000000007bffffffffffffffffffffffffffffffffffffffffffffffffffffffff19166020820180517bffffffffffffffffffffffffffffffffffffffffffffffffffffffff8381831617835250505050610d21565b5050565b610c7b8282604051602401610bf992919061111d565b6040516020818303038152906040527f319af333000000000000000000000000000000000000000000000000000000007bffffffffffffffffffffffffffffffffffffffffffffffffffffffff19166020820180517bffffffffffffffffffffffffffffffffffffffffffffffffffffffff8381831617835250505050610d21565b5050565b610d1b84848484604051602401610c99949392919061114d565b6040516020818303038152906040527fdaa394bd000000000000000000000000000000000000000000000000000000007bffffffffffffffffffffffffffffffffffffffffffffffffffffffff19166020820180517bffffffffffffffffffffffffffffffffffffffffffffffffffffffff8381831617835250505050610d21565b50505050565b60008151905060006a636f6e736f6c652e6c6f679050602083016000808483855afa5050505050565b828054610d569061140f565b90600052602060002090601f016020900481019282610d785760008555610dbf565b82601f10610d9157805160ff1916838001178555610dbf565b82800160010185558215610dbf579182015b82811115610dbe578251825591602001919060010190610da3565b5b509050610dcc9190610dd0565b5090565b5b80821115610de9576000816000905550600101610dd1565b5090565b6000610e00610dfb84611299565b611274565b905082815260208101848484011115610e1857600080fd5b610e238482856113cd565b509392505050565b600082601f830112610e3c57600080fd5b8135610e4c848260208601610ded565b91505092915050565b600060208284031215610e6757600080fd5b600082013567ffffffffffffffff811115610e8157600080fd5b610e8d84828501610e2b565b91505092915050565b6000610ea2838361103b565b905092915050565b610eb381611391565b82525050565b610ec281611391565b82525050565b6000610ed3826112da565b610edd81856112fd565b935083602082028501610eef856112ca565b8060005b85811015610f2b5784840389528151610f0c8582610e96565b9450610f17836112f0565b925060208a01995050600181019050610ef3565b50829750879550505050505092915050565b6000610f48826112e5565b610f528185611319565b9350610f628185602086016113dc565b610f6b8161155f565b840191505092915050565b6000610f81826112e5565b610f8b818561132a565b9350610f9b8185602086016113dc565b610fa48161155f565b840191505092915050565b6000610fbc60368361132a565b9150610fc782611570565b604082019050919050565b6000610fdf60008361130e565b9150610fea826115bf565b600082019050919050565b600061100260208361132a565b915061100d826115c2565b602082019050919050565b6000611025602b8361132a565b9150611030826115eb565b604082019050919050565b60006060830160008301516110536000860182610eaa565b506020830151848203602086015261106b8282610f3d565b9150506040830151611080604086018261108b565b508091505092915050565b611094816113c3565b82525050565b6110a3816113c3565b82525050565b60006110b482610fd2565b9150819050919050565b60006020820190506110d36000830184610eb9565b92915050565b600060208201905081810360008301526110f38184610ec8565b905092915050565b600060208201905081810360008301526111158184610f76565b905092915050565b600060408201905081810360008301526111378185610f76565b90506111466020830184610eb9565b9392505050565b600060808201905081810360008301526111678187610f76565b90506111766020830186610eb9565b611183604083018561109a565b611190606083018461109a565b95945050505050565b600060408201905081810360008301526111b38185610f76565b90506111c2602083018461109a565b9392505050565b600060208201905081810360008301526111e281610faf565b9050919050565b6000602082019050818103600083015261120281610ff5565b9050919050565b6000602082019050818103600083015261122281611018565b9050919050565b600060208201905061123e600083018461109a565b92915050565b6000604082019050611259600083018561109a565b818103602083015261126b8184610f76565b90509392505050565b600061127e61128f565b905061128a8282611441565b919050565b6000604051905090565b600067ffffffffffffffff8211156112b4576112b3611530565b5b6112bd8261155f565b9050602081019050919050565b6000819050602082019050919050565b600081519050919050565b600081519050919050565b6000602082019050919050565b600082825260208201905092915050565b600081905092915050565b600082825260208201905092915050565b600082825260208201905092915050565b6000611346826113c3565b9150611351836113c3565b9250827fffffffffffffffffffffffffffffffffffffffffffffffffffffffffffffffff03821115611386576113856114a3565b5b828201905092915050565b600061139c826113a3565b9050919050565b600073ffffffffffffffffffffffffffffffffffffffff82169050919050565b6000819050919050565b82818337600083830152505050565b60005b838110156113fa5780820151818401526020810190506113df565b83811115611409576000848401525b50505050565b6000600282049050600182168061142757607f821691505b6020821081141561143b5761143a611501565b5b50919050565b61144a8261155f565b810181811067ffffffffffffffff8211171561146957611468611530565b5b80604052505050565b600061147d826113c3565b9150611488836113c3565b925082611498576114976114d2565b5b828206905092915050565b7f4e487b7100000000000000000000000000000000000000000000000000000000600052601160045260246000fd5b7f4e487b7100000000000000000000000000000000000000000000000000000000600052601260045260246000fd5b7f4e487b7100000000000000000000000000000000000000000000000000000000600052602260045260246000fd5b7f4e487b7100000000000000000000000000000000000000000000000000000000600052604160045260246000fd5b6000601f19601f8301169050919050565b7f596f752061726520747279696e6720746f207769746864726177206d6f72652060008201527f7468616e2074686973206163636f756e74206861732100000000000000000000602082015250565b50565b7f4661696c656420746f2077697468647261772066726f6d20636f6e7472616374600082015250565b7f4368696c6c207370616d6d65722c20796f75206e65656420746f20776169742060008201527f3135206d696e757465732100000000000000000000000000000000000000000060208201525056fe596f7527766520676f7420256420746f74616c2077617665732e204e6f69636521212147656e65726174696e6720736565642e2e2e20736565642073657420746f202573576176652073656e742120546865206c61737420706572736f6e20746f20776176652077617320257320617420626c6f636b206e756d62657220256420776974682073656564202573a2646970667358221220e67d280bf8843a285cea3027ee2cbb63d82f65cff727508f6def11c1a641d97d64736f6c6343000804003349276d206120736d61727420636f6e74726163742e204c6f6f6b206174206d65206265696e6720737570657220736d61727421",
  "linkReferences": {},
  "deployedLinkReferences": {}
}