{
  "_format": "hh-sol-artifact-1",
  "contractName": "WavePortal",
  "sourceName": "contracts/WavePortal.sol",
  "abi": [
    {
      "inputs": [],
      "stateMutability": "payable",
      "type": "constructor"
    },
    {
      "anonymous": false,
      "inputs": [
        {
          "indexed": true,
          "internalType": "address",
          "name": "from",
          "type": "address"
        },
        {
          "indexed": false,
          "internalType": "uint256",
          "name": "timestamp",
          "type": "uint256"
        },
        {
          "indexed": false,
          "internalType": "string",
          "name": "message",
          "type": "string"
        }
      ],
      "name": "NewWave",
      "type": "event"
    },
    {
      "inputs": [],
      "name": "getLastWaveAt",
      "outputs": [
        {
          "internalType": "uint256",
          "name": "",
          "type": "uint256"
        }
      ],
      "stateMutability": "view",
      "type": "function"
    },
    {
      "inputs": [],
      "name": "getLastWaver",
      "outputs": [
        {
          "internalType": "address",
          "name": "",
          "type": "address"
        }
      ],
      "stateMutability": "view",
      "type": "function"
    },
    {
      "inputs": [],
      "name": "getMaxWaves",
      "outputs": [
        {
          "internalType": "uint256",
          "name": "",
          "type": "uint256"
        }
      ],
      "stateMutability": "view",
      "type": "function"
    },
    {
      "inputs": [],
      "name": "getSenderWaves",
      "outputs": [
        {
          "internalType": "uint256",
          "name": "",
          "type": "uint256"
        }
      ],
      "stateMutability": "view",
      "type": "function"
    },
    {
      "inputs": [],
      "name": "getTopWaver",
      "outputs": [
        {
          "internalType": "address",
          "name": "",
          "type": "address"
        }
      ],
      "stateMutability": "view",
      "type": "function"
    },
    {
      "inputs": [],
      "name": "getTotalWaves",
      "outputs": [
        {
          "internalType": "uint256",
          "name": "",
          "type": "uint256"
        }
      ],
      "stateMutability": "view",
      "type": "function"
    },
    {
      "inputs": [],
      "name": "getWavesArray",
      "outputs": [
        {
          "components": [
            {
              "internalType": "address",
              "name": "waver",
              "type": "address"
            },
            {
              "internalType": "string",
              "name": "message",
              "type": "string"
            },
            {
              "internalType": "uint256",
              "name": "timestamp",
              "type": "uint256"
            }
          ],
          "internalType": "struct WavePortal.Wave[]",
          "name": "",
          "type": "tuple[]"
        }
      ],
      "stateMutability": "view",
      "type": "function"
    },
    {
      "inputs": [
        {
          "internalType": "string",
          "name": "_message",
          "type": "string"
        }
      ],
      "name": "wave",
      "outputs": [],
      "stateMutability": "nonpayable",
      "type": "function"
    }
  ],
  "bytecode": "0x6080604052655af3107a40006009556200003d60405180606001604052806033815260200162001b8660339139620000fe60201b62000aad1760201c565b620000886040518060400160405280601881526020017f496e697469616c697a696e672074686520736565642e2e2e0000000000000000815250620000fe60201b62000aad1760201c565b6064444262000098919062000336565b620000a49190620003d3565b600081905550620000f86040518060400160405280601481526020017f496e697469616c20736565642073657420746f20000000000000000000000000815250600054620001a160201b62000b461760201c565b6200047a565b6200019e81604051602401620001159190620002c2565b6040516020818303038152906040527f41304fac000000000000000000000000000000000000000000000000000000007bffffffffffffffffffffffffffffffffffffffffffffffffffffffff19166020820180517bffffffffffffffffffffffffffffffffffffffffffffffffffffffff83818316178352505050506200024760201b60201c565b50565b620002438282604051602401620001ba929190620002e6565b6040516020818303038152906040527f9710a9d0000000000000000000000000000000000000000000000000000000007bffffffffffffffffffffffffffffffffffffffffffffffffffffffff19166020820180517bffffffffffffffffffffffffffffffffffffffffffffffffffffffff83818316178352505050506200024760201b60201c565b5050565b60008151905060006a636f6e736f6c652e6c6f679050602083016000808483855afa5050505050565b60006200027d826200031a565b62000289818562000325565b93506200029b8185602086016200039d565b620002a68162000469565b840191505092915050565b620002bc8162000393565b82525050565b60006020820190508181036000830152620002de818462000270565b905092915050565b6000604082019050818103600083015262000302818562000270565b9050620003136020830184620002b1565b9392505050565b600081519050919050565b600082825260208201905092915050565b6000620003438262000393565b9150620003508362000393565b9250827fffffffffffffffffffffffffffffffffffffffffffffffffffffffffffffffff038211156200038857620003876200040b565b5b828201905092915050565b6000819050919050565b60005b83811015620003bd578082015181840152602081019050620003a0565b83811115620003cd576000848401525b50505050565b6000620003e08262000393565b9150620003ed8362000393565b9250826200040057620003ff6200043a565b5b828206905092915050565b7f4e487b7100000000000000000000000000000000000000000000000000000000600052601160045260246000fd5b7f4e487b7100000000000000000000000000000000000000000000000000000000600052601260045260246000fd5b6000601f19601f8301169050919050565b6116fc806200048a6000396000f3fe608060405234801561001057600080fd5b50600436106100885760003560e01c8063449d46c01161005b578063449d46c01461010557806387ec9b8d146101215780639a2cdc081461013f578063f7091d511461015d57610088565b8063047c24041461008d5780632bce00e2146100ab5780632cda0909146100c95780633362a2d4146100e7575b600080fd5b61009561017b565b6040516100a291906110d8565b60405180910390f35b6100b36102cc565b6040516100c091906110bd565b60405180910390f35b6100d1610357565b6040516100de9190611228565b60405180910390f35b6100ef6103a2565b6040516100fc9190611228565b60405180910390f35b61011f600480360381019061011a9190610e54565b6103ed565b005b61012961092f565b60405161013691906110bd565b60405180910390f35b6101476109ba565b6040516101549190611228565b60405180910390f35b6101656109e8565b6040516101729190611228565b60405180910390f35b60606008805480602002602001604051908101604052809291908181526020016000905b828210156102c357838290600052602060002090600302016040518060600160405290816000820160009054906101000a900473ffffffffffffffffffffffffffffffffffffffff1673ffffffffffffffffffffffffffffffffffffffff1673ffffffffffffffffffffffffffffffffffffffff1681526020016001820180546102289061140e565b80601f01602080910402602001604051908101604052809291908181526020018280546102549061140e565b80156102a15780601f10610276576101008083540402835291602001916102a1565b820191906000526020600020905b81548152906001019060200180831161028457829003601f168201915b505050505081526020016002820154815250508152602001906001019061019f565b50505050905090565b600061032f6040518060400160405280601381526020017f546865206c617374207761766572207761732000000000000000000000000000815250600360009054906101000a900473ffffffffffffffffffffffffffffffffffffffff16610be2565b600360009054906101000a900473ffffffffffffffffffffffffffffffffffffffff16905090565b600061039a6040518060400160405280601b81526020017f546865206d6f73742077617665732069732063757272656e746c790000000000815250600454610b46565b600454905090565b60006103e56040518060400160405280601281526020017f546865206c617374207761766520776173200000000000000000000000000000815250600254610b46565b600254905090565b42601e600760003373ffffffffffffffffffffffffffffffffffffffff1673ffffffffffffffffffffffffffffffffffffffff1681526020019081526020016000205461043a919061133a565b1061047a576040517f08c379a0000000000000000000000000000000000000000000000000000000008152600401610471906111e8565b60405180910390fd5b42600760003373ffffffffffffffffffffffffffffffffffffffff1673ffffffffffffffffffffffffffffffffffffffff1681526020019081526020016000208190555060018060008282546104d0919061133a565b925050819055504260028190555033600360006101000a81548173ffffffffffffffffffffffffffffffffffffffff021916908373ffffffffffffffffffffffffffffffffffffffff1602179055506001600660003373ffffffffffffffffffffffffffffffffffffffff1673ffffffffffffffffffffffffffffffffffffffff168152602001908152602001600020600082825461056f919061133a565b925050819055506032600054116106b4576105bf6040518060400160405280601f81526020017f25732068617320776f6e2061206e696365206c6974746c65207072697a65210081525033610be2565b476009541115610604576040517f08c379a00000000000000000000000000000000000000000000000000000000081526004016105fb906111c8565b60405180910390fd5b60003373ffffffffffffffffffffffffffffffffffffffff1660095460405161062c906110a8565b60006040518083038185875af1925050503d8060008114610669576040519150601f19603f3d011682016040523d82523d6000602084013e61066e565b606091505b50509050806106b2576040517f08c379a00000000000000000000000000000000000000000000000000000000081526004016106a990611208565b60405180910390fd5b505b600454600660003373ffffffffffffffffffffffffffffffffffffffff1673ffffffffffffffffffffffffffffffffffffffff16815260200190815260200160002054106107845733600560006101000a81548173ffffffffffffffffffffffffffffffffffffffff021916908373ffffffffffffffffffffffffffffffffffffffff160217905550600660003373ffffffffffffffffffffffffffffffffffffffff1673ffffffffffffffffffffffffffffffffffffffff168152602001908152602001600020546004819055505b600860405180606001604052803373ffffffffffffffffffffffffffffffffffffffff16815260200183815260200142815250908060018154018082558091505060019003906000526020600020906003020160009091909190915060008201518160000160006101000a81548173ffffffffffffffffffffffffffffffffffffffff021916908373ffffffffffffffffffffffffffffffffffffffff1602179055506020820151816001019080519060200190610843929190610d49565b506040820151816002015550506064424461085e919061133a565b6108689190611471565b60008190555061089260405180606001604052806021815260200161165d60219139600054610b46565b3373ffffffffffffffffffffffffffffffffffffffff167f5f7e16dc676677766a70e9c5628aa6c54ddb8b6e5188e2ae1e1f17f1ffbea71642836040516108da929190611243565b60405180910390a261092c60405180608001604052806049815260200161167e60499139600360009054906101000a900473ffffffffffffffffffffffffffffffffffffffff16600254600054610c7e565b50565b60006109926040518060400160405280601f81526020017f54686520686967686573742077617665722069732063757272656e746c792000815250600560009054906101000a900473ffffffffffffffffffffffffffffffffffffffff16610be2565b600560009054906101000a900473ffffffffffffffffffffffffffffffffffffffff16905090565b60006109e060405180606001604052806023815260200161163a60239139600154610b46565b600154905090565b6000610a686040518060400160405280601581526020017f596f757220746f74616c20776176657320617265200000000000000000000000815250600660003373ffffffffffffffffffffffffffffffffffffffff1673ffffffffffffffffffffffffffffffffffffffff16815260200190815260200160002054610b46565b600660003373ffffffffffffffffffffffffffffffffffffffff1673ffffffffffffffffffffffffffffffffffffffff16815260200190815260200160002054905090565b610b4381604051602401610ac191906110fa565b6040516020818303038152906040527f41304fac000000000000000000000000000000000000000000000000000000007bffffffffffffffffffffffffffffffffffffffffffffffffffffffff19166020820180517bffffffffffffffffffffffffffffffffffffffffffffffffffffffff8381831617835250505050610d20565b50565b610bde8282604051602401610b5c929190611198565b6040516020818303038152906040527f9710a9d0000000000000000000000000000000000000000000000000000000007bffffffffffffffffffffffffffffffffffffffffffffffffffffffff19166020820180517bffffffffffffffffffffffffffffffffffffffffffffffffffffffff8381831617835250505050610d20565b5050565b610c7a8282604051602401610bf892919061111c565b6040516020818303038152906040527f319af333000000000000000000000000000000000000000000000000000000007bffffffffffffffffffffffffffffffffffffffffffffffffffffffff19166020820180517bffffffffffffffffffffffffffffffffffffffffffffffffffffffff8381831617835250505050610d20565b5050565b610d1a84848484604051602401610c98949392919061114c565b6040516020818303038152906040527fdaa394bd000000000000000000000000000000000000000000000000000000007bffffffffffffffffffffffffffffffffffffffffffffffffffffffff19166020820180517bffffffffffffffffffffffffffffffffffffffffffffffffffffffff8381831617835250505050610d20565b50505050565b60008151905060006a636f6e736f6c652e6c6f679050602083016000808483855afa5050505050565b828054610d559061140e565b90600052602060002090601f016020900481019282610d775760008555610dbe565b82601f10610d9057805160ff1916838001178555610dbe565b82800160010185558215610dbe579182015b82811115610dbd578251825591602001919060010190610da2565b5b509050610dcb9190610dcf565b5090565b5b80821115610de8576000816000905550600101610dd0565b5090565b6000610dff610dfa84611298565b611273565b905082815260208101848484011115610e1757600080fd5b610e228482856113cc565b509392505050565b600082601f830112610e3b57600080fd5b8135610e4b848260208601610dec565b91505092915050565b600060208284031215610e6657600080fd5b600082013567ffffffffffffffff811115610e8057600080fd5b610e8c84828501610e2a565b91505092915050565b6000610ea1838361103a565b905092915050565b610eb281611390565b82525050565b610ec181611390565b82525050565b6000610ed2826112d9565b610edc81856112fc565b935083602082028501610eee856112c9565b8060005b85811015610f2a5784840389528151610f0b8582610e95565b9450610f16836112ef565b925060208a01995050600181019050610ef2565b50829750879550505050505092915050565b6000610f47826112e4565b610f518185611318565b9350610f618185602086016113db565b610f6a8161155e565b840191505092915050565b6000610f80826112e4565b610f8a8185611329565b9350610f9a8185602086016113db565b610fa38161155e565b840191505092915050565b6000610fbb603683611329565b9150610fc68261156f565b604082019050919050565b6000610fde603483611329565b9150610fe9826115be565b604082019050919050565b600061100160008361130d565b915061100c8261160d565b600082019050919050565b6000611024602083611329565b915061102f82611610565b602082019050919050565b60006060830160008301516110526000860182610ea9565b506020830151848203602086015261106a8282610f3c565b915050604083015161107f604086018261108a565b508091505092915050565b611093816113c2565b82525050565b6110a2816113c2565b82525050565b60006110b382610ff4565b9150819050919050565b60006020820190506110d26000830184610eb8565b92915050565b600060208201905081810360008301526110f28184610ec7565b905092915050565b600060208201905081810360008301526111148184610f75565b905092915050565b600060408201905081810360008301526111368185610f75565b90506111456020830184610eb8565b9392505050565b600060808201905081810360008301526111668187610f75565b90506111756020830186610eb8565b6111826040830185611099565b61118f6060830184611099565b95945050505050565b600060408201905081810360008301526111b28185610f75565b90506111c16020830184611099565b9392505050565b600060208201905081810360008301526111e181610fae565b9050919050565b6000602082019050818103600083015261120181610fd1565b9050919050565b6000602082019050818103600083015261122181611017565b9050919050565b600060208201905061123d6000830184611099565b92915050565b60006040820190506112586000830185611099565b818103602083015261126a8184610f75565b90509392505050565b600061127d61128e565b90506112898282611440565b919050565b6000604051905090565b600067ffffffffffffffff8211156112b3576112b261152f565b5b6112bc8261155e565b9050602081019050919050565b6000819050602082019050919050565b600081519050919050565b600081519050919050565b6000602082019050919050565b600082825260208201905092915050565b600081905092915050565b600082825260208201905092915050565b600082825260208201905092915050565b6000611345826113c2565b9150611350836113c2565b9250827fffffffffffffffffffffffffffffffffffffffffffffffffffffffffffffffff03821115611385576113846114a2565b5b828201905092915050565b600061139b826113a2565b9050919050565b600073ffffffffffffffffffffffffffffffffffffffff82169050919050565b6000819050919050565b82818337600083830152505050565b60005b838110156113f95780820151818401526020810190506113de565b83811115611408576000848401525b50505050565b6000600282049050600182168061142657607f821691505b6020821081141561143a57611439611500565b5b50919050565b6114498261155e565b810181811067ffffffffffffffff821117156114685761146761152f565b5b80604052505050565b600061147c826113c2565b9150611487836113c2565b925082611497576114966114d1565b5b828206905092915050565b7f4e487b7100000000000000000000000000000000000000000000000000000000600052601160045260246000fd5b7f4e487b7100000000000000000000000000000000000000000000000000000000600052601260045260246000fd5b7f4e487b7100000000000000000000000000000000000000000000000000000000600052602260045260246000fd5b7f4e487b7100000000000000000000000000000000000000000000000000000000600052604160045260246000fd5b6000601f19601f8301169050919050565b7f596f752061726520747279696e6720746f207769746864726177206d6f72652060008201527f7468616e2074686973206163636f756e74206861732100000000000000000000602082015250565b7f4368696c6c207370616d6d65722c20796f75206e65656420746f20776169742060008201527f6174206c65617374203330207365636f6e647321000000000000000000000000602082015250565b50565b7f4661696c656420746f2077697468647261772066726f6d20636f6e747261637460008201525056fe596f7527766520676f7420256420746f74616c2077617665732e204e6f69636521212147656e65726174696e6720736565642e2e2e20736565642073657420746f202573576176652073656e742120546865206c61737420706572736f6e20746f20776176652077617320257320617420626c6f636b206e756d62657220256420776974682073656564202573a2646970667358221220fc52200ea2d3e4e8af86ab92eaae31a891e38607ad9317de2e006d2870768c3f64736f6c6343000804003349276d206120736d61727420636f6e74726163742e204c6f6f6b206174206d65206265696e6720737570657220736d61727421",
  "linkReferences": {},
  "deployedLinkReferences": {}
}