{
  "_format": "hh-sol-artifact-1",
  "contractName": "WavePortal",
  "sourceName": "contracts/WavePortal.sol",
  "abi": [
    {
      "inputs": [],
      "stateMutability": "nonpayable",
      "type": "constructor"
    },
    {
      "inputs": [],
      "name": "getLastWaveAt",
      "outputs": [
        {
          "internalType": "uint256",
          "name": "",
          "type": "uint256"
        }
      ],
      "stateMutability": "view",
      "type": "function"
    },
    {
      "inputs": [],
      "name": "getLastWaver",
      "outputs": [
        {
          "internalType": "address",
          "name": "",
          "type": "address"
        }
      ],
      "stateMutability": "view",
      "type": "function"
    },
    {
      "inputs": [],
      "name": "getMaxWaves",
      "outputs": [
        {
          "internalType": "uint256",
          "name": "",
          "type": "uint256"
        }
      ],
      "stateMutability": "view",
      "type": "function"
    },
    {
      "inputs": [],
      "name": "getTopWaver",
      "outputs": [
        {
          "internalType": "address",
          "name": "",
          "type": "address"
        }
      ],
      "stateMutability": "view",
      "type": "function"
    },
    {
      "inputs": [],
      "name": "getTotalWaves",
      "outputs": [
        {
          "internalType": "uint256",
          "name": "",
          "type": "uint256"
        }
      ],
      "stateMutability": "view",
      "type": "function"
    },
    {
      "inputs": [],
      "name": "getWaverWaves",
      "outputs": [
        {
          "internalType": "uint256",
          "name": "",
          "type": "uint256"
        }
      ],
      "stateMutability": "view",
      "type": "function"
    },
    {
      "inputs": [],
      "name": "wave",
      "outputs": [],
      "stateMutability": "nonpayable",
      "type": "function"
    }
  ],
  "bytecode": "0x60806040523480156200001157600080fd5b506200004160405180606001604052806033815260200162000d38603391396200004760201b620005b01760201c565b620001db565b620000e7816040516024016200005e919062000154565b6040516020818303038152906040527f41304fac000000000000000000000000000000000000000000000000000000007bffffffffffffffffffffffffffffffffffffffffffffffffffffffff19166020820180517bffffffffffffffffffffffffffffffffffffffffffffffffffffffff8381831617835250505050620000ea60201b60201c565b50565b60008151905060006a636f6e736f6c652e6c6f679050602083016000808483855afa5050505050565b6000620001208262000178565b6200012c818562000183565b93506200013e81856020860162000194565b6200014981620001ca565b840191505092915050565b6000602082019050818103600083015262000170818462000113565b905092915050565b600081519050919050565b600082825260208201905092915050565b60005b83811015620001b457808201518184015260208101905062000197565b83811115620001c4576000848401525b50505050565b6000601f19601f8301169050919050565b610b4d80620001eb6000396000f3fe608060405234801561001057600080fd5b506004361061007d5760003560e01c80636fe15b441161005b5780636fe15b44146100dc57806387ec9b8d146100e65780639a2cdc0814610104578063aebb67f7146101225761007d565b80632bce00e2146100825780632cda0909146100a05780633362a2d4146100be575b600080fd5b61008a610140565b60405161009791906108a0565b60405180910390f35b6100a86101cb565b6040516100b5919061097b565b60405180910390f35b6100c6610216565b6040516100d3919061097b565b60405180910390f35b6100e4610261565b005b6100ee610432565b6040516100fb91906108a0565b60405180910390f35b61010c6104bd565b604051610119919061097b565b60405180910390f35b61012a6104eb565b604051610137919061097b565b60405180910390f35b60006101a36040518060400160405280601381526020017f546865206c617374207761766572207761732000000000000000000000000000815250600260009054906101000a900473ffffffffffffffffffffffffffffffffffffffff16610649565b600260009054906101000a900473ffffffffffffffffffffffffffffffffffffffff16905090565b600061020e6040518060400160405280601b81526020017f546865206d6f73742077617665732069732063757272656e746c7900000000008152506003546106e5565b600354905090565b60006102596040518060400160405280601281526020017f546865206c6173742077617665207761732000000000000000000000000000008152506001546106e5565b600154905090565b600160008082825461027391906109b2565b925050819055504260018190555033600260006101000a81548173ffffffffffffffffffffffffffffffffffffffff021916908373ffffffffffffffffffffffffffffffffffffffff1602179055506001600560003373ffffffffffffffffffffffffffffffffffffffff1673ffffffffffffffffffffffffffffffffffffffff168152602001908152602001600020600082825461031291906109b2565b92505081905550600354600560003373ffffffffffffffffffffffffffffffffffffffff1673ffffffffffffffffffffffffffffffffffffffff16815260200190815260200160002054106103e95733600460006101000a81548173ffffffffffffffffffffffffffffffffffffffff021916908373ffffffffffffffffffffffffffffffffffffffff160217905550600560003373ffffffffffffffffffffffffffffffffffffffff1673ffffffffffffffffffffffffffffffffffffffff168152602001908152602001600020546003819055505b6104306040518060600160405280603d8152602001610adb603d9139600260009054906101000a900473ffffffffffffffffffffffffffffffffffffffff16600154610781565b565b60006104956040518060400160405280601f81526020017f54686520686967686573742077617665722069732063757272656e746c792000815250600460009054906101000a900473ffffffffffffffffffffffffffffffffffffffff16610649565b600460009054906101000a900473ffffffffffffffffffffffffffffffffffffffff16905090565b60006104e3604051806060016040528060238152602001610ab8602391396000546106e5565b600054905090565b600061056b6040518060400160405280601581526020017f596f757220746f74616c20776176657320617265200000000000000000000000815250600560003373ffffffffffffffffffffffffffffffffffffffff1673ffffffffffffffffffffffffffffffffffffffff168152602001908152602001600020546106e5565b600560003373ffffffffffffffffffffffffffffffffffffffff1673ffffffffffffffffffffffffffffffffffffffff16815260200190815260200160002054905090565b610646816040516024016105c491906108bb565b6040516020818303038152906040527f41304fac000000000000000000000000000000000000000000000000000000007bffffffffffffffffffffffffffffffffffffffffffffffffffffffff19166020820180517bffffffffffffffffffffffffffffffffffffffffffffffffffffffff8381831617835250505050610820565b50565b6106e1828260405160240161065f9291906108dd565b6040516020818303038152906040527f319af333000000000000000000000000000000000000000000000000000000007bffffffffffffffffffffffffffffffffffffffffffffffffffffffff19166020820180517bffffffffffffffffffffffffffffffffffffffffffffffffffffffff8381831617835250505050610820565b5050565b61077d82826040516024016106fb92919061094b565b6040516020818303038152906040527f9710a9d0000000000000000000000000000000000000000000000000000000007bffffffffffffffffffffffffffffffffffffffffffffffffffffffff19166020820180517bffffffffffffffffffffffffffffffffffffffffffffffffffffffff8381831617835250505050610820565b5050565b61081b8383836040516024016107999392919061090d565b6040516020818303038152906040527f07c81217000000000000000000000000000000000000000000000000000000007bffffffffffffffffffffffffffffffffffffffffffffffffffffffff19166020820180517bffffffffffffffffffffffffffffffffffffffffffffffffffffffff8381831617835250505050610820565b505050565b60008151905060006a636f6e736f6c652e6c6f679050602083016000808483855afa5050505050565b61085281610a08565b82525050565b600061086382610996565b61086d81856109a1565b935061087d818560208601610a44565b61088681610aa6565b840191505092915050565b61089a81610a3a565b82525050565b60006020820190506108b56000830184610849565b92915050565b600060208201905081810360008301526108d58184610858565b905092915050565b600060408201905081810360008301526108f78185610858565b90506109066020830184610849565b9392505050565b600060608201905081810360008301526109278186610858565b90506109366020830185610849565b6109436040830184610891565b949350505050565b600060408201905081810360008301526109658185610858565b90506109746020830184610891565b9392505050565b60006020820190506109906000830184610891565b92915050565b600081519050919050565b600082825260208201905092915050565b60006109bd82610a3a565b91506109c883610a3a565b9250827fffffffffffffffffffffffffffffffffffffffffffffffffffffffffffffffff038211156109fd576109fc610a77565b5b828201905092915050565b6000610a1382610a1a565b9050919050565b600073ffffffffffffffffffffffffffffffffffffffff82169050919050565b6000819050919050565b60005b83811015610a62578082015181840152602081019050610a47565b83811115610a71576000848401525b50505050565b7f4e487b7100000000000000000000000000000000000000000000000000000000600052601160045260246000fd5b6000601f19601f830116905091905056fe596f7527766520676f7420256420746f74616c2077617665732e204e6f696365212121576176652073656e742120546865206c61737420706572736f6e20746f20776176652077617320257320617420626c6f636b206e756d6265722025642ea26469706673582212204c3c90f55ab9b03cd8faff61c375250b841b43399ad926dd91c11179b950092064736f6c6343000804003349276d206120736d61727420636f6e74726163742e204c6f6f6b206174206d65206265696e6720737570657220736d61727421",
  "linkReferences": {},
  "deployedLinkReferences": {}
}