{
  "_format": "hh-sol-artifact-1",
  "contractName": "WavePortal",
  "sourceName": "contracts/WavePortal.sol",
  "abi": [
    {
      "inputs": [],
      "stateMutability": "nonpayable",
      "type": "constructor"
    },
    {
      "inputs": [],
      "name": "getLastWaveAt",
      "outputs": [
        {
          "internalType": "uint256",
          "name": "",
          "type": "uint256"
        }
      ],
      "stateMutability": "view",
      "type": "function"
    },
    {
      "inputs": [],
      "name": "getLastWaver",
      "outputs": [
        {
          "internalType": "address",
          "name": "",
          "type": "address"
        }
      ],
      "stateMutability": "view",
      "type": "function"
    },
    {
      "inputs": [],
      "name": "getMaxWaves",
      "outputs": [
        {
          "internalType": "uint256",
          "name": "",
          "type": "uint256"
        }
      ],
      "stateMutability": "view",
      "type": "function"
    },
    {
      "inputs": [],
      "name": "getTopWaver",
      "outputs": [
        {
          "internalType": "address",
          "name": "",
          "type": "address"
        }
      ],
      "stateMutability": "view",
      "type": "function"
    },
    {
      "inputs": [],
      "name": "getTotalWaves",
      "outputs": [
        {
          "internalType": "uint256",
          "name": "",
          "type": "uint256"
        }
      ],
      "stateMutability": "view",
      "type": "function"
    },
    {
      "inputs": [],
      "name": "getWaverLast",
      "outputs": [
        {
          "internalType": "uint256",
          "name": "",
          "type": "uint256"
        }
      ],
      "stateMutability": "view",
      "type": "function"
    },
    {
      "inputs": [],
      "name": "getWaverWaves",
      "outputs": [
        {
          "internalType": "uint256",
          "name": "",
          "type": "uint256"
        }
      ],
      "stateMutability": "view",
      "type": "function"
    },
    {
      "inputs": [],
      "name": "wave",
      "outputs": [],
      "stateMutability": "nonpayable",
      "type": "function"
    }
  ],
  "bytecode": "0x608060405234801561001057600080fd5b5061003d60405180606001604052806033815260200162000ce96033913961004260201b6105771760201c565b6101c5565b6100de816040516024016100569190610143565b6040516020818303038152906040527f41304fac000000000000000000000000000000000000000000000000000000007bffffffffffffffffffffffffffffffffffffffffffffffffffffffff19166020820180517bffffffffffffffffffffffffffffffffffffffffffffffffffffffff83818316178352505050506100e160201b60201c565b50565b60008151905060006a636f6e736f6c652e6c6f679050602083016000808483855afa5050505050565b600061011582610165565b61011f8185610170565b935061012f818560208601610181565b610138816101b4565b840191505092915050565b6000602082019050818103600083015261015d818461010a565b905092915050565b600081519050919050565b600082825260208201905092915050565b60005b8381101561019f578082015181840152602081019050610184565b838111156101ae576000848401525b50505050565b6000601f19601f8301169050919050565b610b1480620001d56000396000f3fe608060405234801561001057600080fd5b50600436106100885760003560e01c80636fe15b441161005b5780636fe15b441461010557806387ec9b8d1461010f5780639a2cdc081461012d578063aebb67f71461014b57610088565b80631ba9233f1461008d5780632bce00e2146100ab5780632cda0909146100c95780633362a2d4146100e7575b600080fd5b610095610169565b6040516100a29190610942565b60405180910390f35b6100b361022e565b6040516100c09190610867565b60405180910390f35b6100d16102b9565b6040516100de9190610942565b60405180910390f35b6100ef610304565b6040516100fc9190610942565b60405180910390f35b61010d61034f565b005b6101176103f9565b6040516101249190610867565b60405180910390f35b610135610484565b6040516101429190610942565b60405180910390f35b6101536104b2565b6040516101609190610942565b60405180910390f35b60006101e96040518060400160405280601281526020017f596f75206c617374207761766564206174200000000000000000000000000000815250600560003373ffffffffffffffffffffffffffffffffffffffff1673ffffffffffffffffffffffffffffffffffffffff16815260200190815260200160002054610610565b600560003373ffffffffffffffffffffffffffffffffffffffff1673ffffffffffffffffffffffffffffffffffffffff16815260200190815260200160002054905090565b60006102916040518060400160405280601381526020017f546865206c617374207761766572207761732000000000000000000000000000815250600260009054906101000a900473ffffffffffffffffffffffffffffffffffffffff166106ac565b600260009054906101000a900473ffffffffffffffffffffffffffffffffffffffff16905090565b60006102fc6040518060400160405280601b81526020017f546865206d6f73742077617665732069732063757272656e746c790000000000815250600354610610565b600354905090565b60006103476040518060400160405280601281526020017f546865206c617374207761766520776173200000000000000000000000000000815250600154610610565b600154905090565b60016000808282546103619190610979565b925050819055504260018190555033600260006101000a81548173ffffffffffffffffffffffffffffffffffffffff021916908373ffffffffffffffffffffffffffffffffffffffff1602179055506103f76040518060600160405280603d8152602001610aa2603d9139600260009054906101000a900473ffffffffffffffffffffffffffffffffffffffff16600154610748565b565b600061045c6040518060400160405280601f81526020017f54686520686967686573742077617665722069732063757272656e746c792000815250600460009054906101000a900473ffffffffffffffffffffffffffffffffffffffff166106ac565b600460009054906101000a900473ffffffffffffffffffffffffffffffffffffffff16905090565b60006104aa604051806060016040528060238152602001610a7f60239139600054610610565b600054905090565b60006105326040518060400160405280601581526020017f596f757220746f74616c20776176657320617265200000000000000000000000815250600660003373ffffffffffffffffffffffffffffffffffffffff1673ffffffffffffffffffffffffffffffffffffffff16815260200190815260200160002054610610565b600660003373ffffffffffffffffffffffffffffffffffffffff1673ffffffffffffffffffffffffffffffffffffffff16815260200190815260200160002054905090565b61060d8160405160240161058b9190610882565b6040516020818303038152906040527f41304fac000000000000000000000000000000000000000000000000000000007bffffffffffffffffffffffffffffffffffffffffffffffffffffffff19166020820180517bffffffffffffffffffffffffffffffffffffffffffffffffffffffff83818316178352505050506107e7565b50565b6106a88282604051602401610626929190610912565b6040516020818303038152906040527f9710a9d0000000000000000000000000000000000000000000000000000000007bffffffffffffffffffffffffffffffffffffffffffffffffffffffff19166020820180517bffffffffffffffffffffffffffffffffffffffffffffffffffffffff83818316178352505050506107e7565b5050565b61074482826040516024016106c29291906108a4565b6040516020818303038152906040527f319af333000000000000000000000000000000000000000000000000000000007bffffffffffffffffffffffffffffffffffffffffffffffffffffffff19166020820180517bffffffffffffffffffffffffffffffffffffffffffffffffffffffff83818316178352505050506107e7565b5050565b6107e2838383604051602401610760939291906108d4565b6040516020818303038152906040527f07c81217000000000000000000000000000000000000000000000000000000007bffffffffffffffffffffffffffffffffffffffffffffffffffffffff19166020820180517bffffffffffffffffffffffffffffffffffffffffffffffffffffffff83818316178352505050506107e7565b505050565b60008151905060006a636f6e736f6c652e6c6f679050602083016000808483855afa5050505050565b610819816109cf565b82525050565b600061082a8261095d565b6108348185610968565b9350610844818560208601610a0b565b61084d81610a6d565b840191505092915050565b61086181610a01565b82525050565b600060208201905061087c6000830184610810565b92915050565b6000602082019050818103600083015261089c818461081f565b905092915050565b600060408201905081810360008301526108be818561081f565b90506108cd6020830184610810565b9392505050565b600060608201905081810360008301526108ee818661081f565b90506108fd6020830185610810565b61090a6040830184610858565b949350505050565b6000604082019050818103600083015261092c818561081f565b905061093b6020830184610858565b9392505050565b60006020820190506109576000830184610858565b92915050565b600081519050919050565b600082825260208201905092915050565b600061098482610a01565b915061098f83610a01565b9250827fffffffffffffffffffffffffffffffffffffffffffffffffffffffffffffffff038211156109c4576109c3610a3e565b5b828201905092915050565b60006109da826109e1565b9050919050565b600073ffffffffffffffffffffffffffffffffffffffff82169050919050565b6000819050919050565b60005b83811015610a29578082015181840152602081019050610a0e565b83811115610a38576000848401525b50505050565b7f4e487b7100000000000000000000000000000000000000000000000000000000600052601160045260246000fd5b6000601f19601f830116905091905056fe596f7527766520676f7420256420746f74616c2077617665732e204e6f696365212121576176652073656e742120546865206c61737420706572736f6e20746f20776176652077617320257320617420626c6f636b206e756d6265722025642ea26469706673582212201363fac29dc2e7f997f0a7b299dc8225c1c8bc21ab6ae1b3cc899c541517225b64736f6c6343000804003349276d206120736d61727420636f6e74726163742e204c6f6f6b206174206d65206265696e6720737570657220736d61727421",
  "linkReferences": {},
  "deployedLinkReferences": {}
}