{
  "_format": "hh-sol-artifact-1",
  "contractName": "WavePortal",
  "sourceName": "contracts/WavePortal.sol",
  "abi": [
    {
      "inputs": [],
      "stateMutability": "nonpayable",
      "type": "constructor"
    },
    {
      "anonymous": false,
      "inputs": [
        {
          "indexed": true,
          "internalType": "address",
          "name": "from",
          "type": "address"
        },
        {
          "indexed": false,
          "internalType": "uint256",
          "name": "timestamp",
          "type": "uint256"
        },
        {
          "indexed": false,
          "internalType": "string",
          "name": "message",
          "type": "string"
        }
      ],
      "name": "NewWave",
      "type": "event"
    },
    {
      "inputs": [],
      "name": "getLastWaveAt",
      "outputs": [
        {
          "internalType": "uint256",
          "name": "",
          "type": "uint256"
        }
      ],
      "stateMutability": "view",
      "type": "function"
    },
    {
      "inputs": [],
      "name": "getLastWaver",
      "outputs": [
        {
          "internalType": "address",
          "name": "",
          "type": "address"
        }
      ],
      "stateMutability": "view",
      "type": "function"
    },
    {
      "inputs": [],
      "name": "getMaxWaves",
      "outputs": [
        {
          "internalType": "uint256",
          "name": "",
          "type": "uint256"
        }
      ],
      "stateMutability": "view",
      "type": "function"
    },
    {
      "inputs": [],
      "name": "getSenderWaves",
      "outputs": [
        {
          "internalType": "uint256",
          "name": "",
          "type": "uint256"
        }
      ],
      "stateMutability": "view",
      "type": "function"
    },
    {
      "inputs": [],
      "name": "getTopWaver",
      "outputs": [
        {
          "internalType": "address",
          "name": "",
          "type": "address"
        }
      ],
      "stateMutability": "view",
      "type": "function"
    },
    {
      "inputs": [],
      "name": "getTotalWaves",
      "outputs": [
        {
          "internalType": "uint256",
          "name": "",
          "type": "uint256"
        }
      ],
      "stateMutability": "view",
      "type": "function"
    },
    {
      "inputs": [],
      "name": "getWavesArray",
      "outputs": [
        {
          "components": [
            {
              "internalType": "address",
              "name": "waver",
              "type": "address"
            },
            {
              "internalType": "string",
              "name": "message",
              "type": "string"
            },
            {
              "internalType": "uint256",
              "name": "timestamp",
              "type": "uint256"
            },
            {
              "internalType": "string",
              "name": "anotherMessage",
              "type": "string"
            }
          ],
          "internalType": "struct WavePortal.Wave[]",
          "name": "",
          "type": "tuple[]"
        }
      ],
      "stateMutability": "view",
      "type": "function"
    },
    {
      "inputs": [
        {
          "internalType": "string",
          "name": "_message",
          "type": "string"
        },
        {
          "internalType": "string",
          "name": "_anotherParam",
          "type": "string"
        }
      ],
      "name": "wave",
      "outputs": [],
      "stateMutability": "nonpayable",
      "type": "function"
    }
  ],
  "bytecode": "0x60806040523480156200001157600080fd5b50620000416040518060600160405280603381526020016200151a603391396200004760201b6200090f1760201c565b620001db565b620000e7816040516024016200005e919062000154565b6040516020818303038152906040527f41304fac000000000000000000000000000000000000000000000000000000007bffffffffffffffffffffffffffffffffffffffffffffffffffffffff19166020820180517bffffffffffffffffffffffffffffffffffffffffffffffffffffffff8381831617835250505050620000ea60201b60201c565b50565b60008151905060006a636f6e736f6c652e6c6f679050602083016000808483855afa5050505050565b6000620001208262000178565b6200012c818562000183565b93506200013e81856020860162000194565b6200014981620001ca565b840191505092915050565b6000602082019050818103600083015262000170818462000113565b905092915050565b600081519050919050565b600082825260208201905092915050565b60005b83811015620001b457808201518184015260208101905062000197565b83811115620001c4576000848401525b50505050565b6000601f19601f8301169050919050565b61132f80620001eb6000396000f3fe608060405234801561001057600080fd5b50600436106100885760003560e01c8063518729591161005b578063518729591461010557806387ec9b8d146101215780639a2cdc081461013f578063f7091d511461015d57610088565b8063047c24041461008d5780632bce00e2146100ab5780632cda0909146100c95780633362a2d4146100e7575b600080fd5b61009561017b565b6040516100a29190610edb565b60405180910390f35b6100b361035e565b6040516100c09190610ec0565b60405180910390f35b6100d16103e9565b6040516100de9190610fbd565b60405180910390f35b6100ef610434565b6040516100fc9190610fbd565b60405180910390f35b61011f600480360381019061011a9190610cb3565b61047f565b005b610129610791565b6040516101369190610ec0565b60405180910390f35b61014761081c565b6040516101549190610fbd565b60405180910390f35b61016561084a565b6040516101729190610fbd565b60405180910390f35b60606006805480602002602001604051908101604052809291908181526020016000905b8282101561035557838290600052602060002090600402016040518060800160405290816000820160009054906101000a900473ffffffffffffffffffffffffffffffffffffffff1673ffffffffffffffffffffffffffffffffffffffff1673ffffffffffffffffffffffffffffffffffffffff16815260200160018201805461022890611198565b80601f016020809104026020016040519081016040528092919081815260200182805461025490611198565b80156102a15780601f10610276576101008083540402835291602001916102a1565b820191906000526020600020905b81548152906001019060200180831161028457829003601f168201915b50505050508152602001600282015481526020016003820180546102c490611198565b80601f01602080910402602001604051908101604052809291908181526020018280546102f090611198565b801561033d5780601f106103125761010080835404028352916020019161033d565b820191906000526020600020905b81548152906001019060200180831161032057829003601f168201915b5050505050815250508152602001906001019061019f565b50505050905090565b60006103c16040518060400160405280601381526020017f546865206c617374207761766572207761732000000000000000000000000000815250600260009054906101000a900473ffffffffffffffffffffffffffffffffffffffff166109a8565b600260009054906101000a900473ffffffffffffffffffffffffffffffffffffffff16905090565b600061042c6040518060400160405280601b81526020017f546865206d6f73742077617665732069732063757272656e746c790000000000815250600354610a44565b600354905090565b60006104776040518060400160405280601281526020017f546865206c617374207761766520776173200000000000000000000000000000815250600154610a44565b600154905090565b600160008082825461049191906110c4565b925050819055504260018190555033600260006101000a81548173ffffffffffffffffffffffffffffffffffffffff021916908373ffffffffffffffffffffffffffffffffffffffff1602179055506001600560003373ffffffffffffffffffffffffffffffffffffffff1673ffffffffffffffffffffffffffffffffffffffff168152602001908152602001600020600082825461053091906110c4565b92505081905550600354600560003373ffffffffffffffffffffffffffffffffffffffff1673ffffffffffffffffffffffffffffffffffffffff16815260200190815260200160002054106106075733600460006101000a81548173ffffffffffffffffffffffffffffffffffffffff021916908373ffffffffffffffffffffffffffffffffffffffff160217905550600560003373ffffffffffffffffffffffffffffffffffffffff1673ffffffffffffffffffffffffffffffffffffffff168152602001908152602001600020546003819055505b600660405180608001604052803373ffffffffffffffffffffffffffffffffffffffff16815260200184815260200142815260200183815250908060018154018082558091505060019003906000526020600020906004020160009091909190915060008201518160000160006101000a81548173ffffffffffffffffffffffffffffffffffffffff021916908373ffffffffffffffffffffffffffffffffffffffff16021790555060208201518160010190805190602001906106cc929190610ba8565b506040820151816002015560608201518160030190805190602001906106f3929190610ba8565b5050503373ffffffffffffffffffffffffffffffffffffffff167f5f7e16dc676677766a70e9c5628aa6c54ddb8b6e5188e2ae1e1f17f1ffbea716428460405161073e929190610fd8565b60405180910390a261078d6040518060600160405280603d81526020016112bd603d9139600260009054906101000a900473ffffffffffffffffffffffffffffffffffffffff16600154610ae0565b5050565b60006107f46040518060400160405280601f81526020017f54686520686967686573742077617665722069732063757272656e746c792000815250600460009054906101000a900473ffffffffffffffffffffffffffffffffffffffff166109a8565b600460009054906101000a900473ffffffffffffffffffffffffffffffffffffffff16905090565b600061084260405180606001604052806023815260200161129a60239139600054610a44565b600054905090565b60006108ca6040518060400160405280601581526020017f596f757220746f74616c20776176657320617265200000000000000000000000815250600560003373ffffffffffffffffffffffffffffffffffffffff1673ffffffffffffffffffffffffffffffffffffffff16815260200190815260200160002054610a44565b600560003373ffffffffffffffffffffffffffffffffffffffff1673ffffffffffffffffffffffffffffffffffffffff16815260200190815260200160002054905090565b6109a5816040516024016109239190610efd565b6040516020818303038152906040527f41304fac000000000000000000000000000000000000000000000000000000007bffffffffffffffffffffffffffffffffffffffffffffffffffffffff19166020820180517bffffffffffffffffffffffffffffffffffffffffffffffffffffffff8381831617835250505050610b7f565b50565b610a4082826040516024016109be929190610f1f565b6040516020818303038152906040527f319af333000000000000000000000000000000000000000000000000000000007bffffffffffffffffffffffffffffffffffffffffffffffffffffffff19166020820180517bffffffffffffffffffffffffffffffffffffffffffffffffffffffff8381831617835250505050610b7f565b5050565b610adc8282604051602401610a5a929190610f8d565b6040516020818303038152906040527f9710a9d0000000000000000000000000000000000000000000000000000000007bffffffffffffffffffffffffffffffffffffffffffffffffffffffff19166020820180517bffffffffffffffffffffffffffffffffffffffffffffffffffffffff8381831617835250505050610b7f565b5050565b610b7a838383604051602401610af893929190610f4f565b6040516020818303038152906040527f07c81217000000000000000000000000000000000000000000000000000000007bffffffffffffffffffffffffffffffffffffffffffffffffffffffff19166020820180517bffffffffffffffffffffffffffffffffffffffffffffffffffffffff8381831617835250505050610b7f565b505050565b60008151905060006a636f6e736f6c652e6c6f679050602083016000808483855afa5050505050565b828054610bb490611198565b90600052602060002090601f016020900481019282610bd65760008555610c1d565b82601f10610bef57805160ff1916838001178555610c1d565b82800160010185558215610c1d579182015b82811115610c1c578251825591602001919060010190610c01565b5b509050610c2a9190610c2e565b5090565b5b80821115610c47576000816000905550600101610c2f565b5090565b6000610c5e610c598461102d565b611008565b905082815260208101848484011115610c7657600080fd5b610c81848285611156565b509392505050565b600082601f830112610c9a57600080fd5b8135610caa848260208601610c4b565b91505092915050565b60008060408385031215610cc657600080fd5b600083013567ffffffffffffffff811115610ce057600080fd5b610cec85828601610c89565b925050602083013567ffffffffffffffff811115610d0957600080fd5b610d1585828601610c89565b9150509250929050565b6000610d2b8383610e38565b905092915050565b610d3c8161111a565b82525050565b610d4b8161111a565b82525050565b6000610d5c8261106e565b610d668185611091565b935083602082028501610d788561105e565b8060005b85811015610db45784840389528151610d958582610d1f565b9450610da083611084565b925060208a01995050600181019050610d7c565b50829750879550505050505092915050565b6000610dd182611079565b610ddb81856110a2565b9350610deb818560208601611165565b610df481611288565b840191505092915050565b6000610e0a82611079565b610e1481856110b3565b9350610e24818560208601611165565b610e2d81611288565b840191505092915050565b6000608083016000830151610e506000860182610d33565b5060208301518482036020860152610e688282610dc6565b9150506040830151610e7d6040860182610ea2565b5060608301518482036060860152610e958282610dc6565b9150508091505092915050565b610eab8161114c565b82525050565b610eba8161114c565b82525050565b6000602082019050610ed56000830184610d42565b92915050565b60006020820190508181036000830152610ef58184610d51565b905092915050565b60006020820190508181036000830152610f178184610dff565b905092915050565b60006040820190508181036000830152610f398185610dff565b9050610f486020830184610d42565b9392505050565b60006060820190508181036000830152610f698186610dff565b9050610f786020830185610d42565b610f856040830184610eb1565b949350505050565b60006040820190508181036000830152610fa78185610dff565b9050610fb66020830184610eb1565b9392505050565b6000602082019050610fd26000830184610eb1565b92915050565b6000604082019050610fed6000830185610eb1565b8181036020830152610fff8184610dff565b90509392505050565b6000611012611023565b905061101e82826111ca565b919050565b6000604051905090565b600067ffffffffffffffff82111561104857611047611259565b5b61105182611288565b9050602081019050919050565b6000819050602082019050919050565b600081519050919050565b600081519050919050565b6000602082019050919050565b600082825260208201905092915050565b600082825260208201905092915050565b600082825260208201905092915050565b60006110cf8261114c565b91506110da8361114c565b9250827fffffffffffffffffffffffffffffffffffffffffffffffffffffffffffffffff0382111561110f5761110e6111fb565b5b828201905092915050565b60006111258261112c565b9050919050565b600073ffffffffffffffffffffffffffffffffffffffff82169050919050565b6000819050919050565b82818337600083830152505050565b60005b83811015611183578082015181840152602081019050611168565b83811115611192576000848401525b50505050565b600060028204905060018216806111b057607f821691505b602082108114156111c4576111c361122a565b5b50919050565b6111d382611288565b810181811067ffffffffffffffff821117156111f2576111f1611259565b5b80604052505050565b7f4e487b7100000000000000000000000000000000000000000000000000000000600052601160045260246000fd5b7f4e487b7100000000000000000000000000000000000000000000000000000000600052602260045260246000fd5b7f4e487b7100000000000000000000000000000000000000000000000000000000600052604160045260246000fd5b6000601f19601f830116905091905056fe596f7527766520676f7420256420746f74616c2077617665732e204e6f696365212121576176652073656e742120546865206c61737420706572736f6e20746f20776176652077617320257320617420626c6f636b206e756d6265722025642ea2646970667358221220e2cf64c7e0f0e3ae1e6827df0ca6295bd806766e1b7fc6ab4e89416dd23e90c564736f6c6343000804003349276d206120736d61727420636f6e74726163742e204c6f6f6b206174206d65206265696e6720737570657220736d61727421",
  "linkReferences": {},
  "deployedLinkReferences": {}
}