{
  "_format": "hh-sol-artifact-1",
  "contractName": "WavePortal",
  "sourceName": "contracts/WavePortal.sol",
  "abi": [
    {
      "inputs": [],
      "stateMutability": "nonpayable",
      "type": "constructor"
    },
    {
      "inputs": [],
      "name": "getTotalWaves",
      "outputs": [
        {
          "internalType": "uint256",
          "name": "",
          "type": "uint256"
        }
      ],
      "stateMutability": "view",
      "type": "function"
    },
    {
      "inputs": [],
      "name": "wave",
      "outputs": [],
      "stateMutability": "nonpayable",
      "type": "function"
    }
  ],
  "bytecode": "0x608060405234801561001057600080fd5b5061003c6040518060600160405280603381526020016107c46033913961004160201b61013b1760201c565b6101c4565b6100dd816040516024016100559190610142565b6040516020818303038152906040527f41304fac000000000000000000000000000000000000000000000000000000007bffffffffffffffffffffffffffffffffffffffffffffffffffffffff19166020820180517bffffffffffffffffffffffffffffffffffffffffffffffffffffffff83818316178352505050506100e060201b60201c565b50565b60008151905060006a636f6e736f6c652e6c6f679050602083016000808483855afa5050505050565b600061011482610164565b61011e818561016f565b935061012e818560208601610180565b610137816101b3565b840191505092915050565b6000602082019050818103600083015261015c8184610109565b905092915050565b600081519050919050565b600082825260208201905092915050565b60005b8381101561019e578082015181840152602081019050610183565b838111156101ad576000848401525b50505050565b6000601f19601f8301169050919050565b6105f1806101d36000396000f3fe608060405234801561001057600080fd5b50600436106100365760003560e01c80636fe15b441461003b5780639a2cdc0814610045575b600080fd5b610043610063565b005b61004d61010d565b60405161005a919061041f565b60405180910390f35b60016000808282546100759190610456565b925050819055504360018190555033600260006101000a81548173ffffffffffffffffffffffffffffffffffffffff021916908373ffffffffffffffffffffffffffffffffffffffff16021790555061010b6040518060600160405280603d815260200161057f603d9139600260009054906101000a900473ffffffffffffffffffffffffffffffffffffffff166001546101d4565b565b600061013360405180606001604052806023815260200161055c60239139600054610273565b600054905090565b6101d18160405160240161014f919061038f565b6040516020818303038152906040527f41304fac000000000000000000000000000000000000000000000000000000007bffffffffffffffffffffffffffffffffffffffffffffffffffffffff19166020820180517bffffffffffffffffffffffffffffffffffffffffffffffffffffffff838183161783525050505061030f565b50565b61026e8383836040516024016101ec939291906103b1565b6040516020818303038152906040527f07c81217000000000000000000000000000000000000000000000000000000007bffffffffffffffffffffffffffffffffffffffffffffffffffffffff19166020820180517bffffffffffffffffffffffffffffffffffffffffffffffffffffffff838183161783525050505061030f565b505050565b61030b82826040516024016102899291906103ef565b6040516020818303038152906040527f9710a9d0000000000000000000000000000000000000000000000000000000007bffffffffffffffffffffffffffffffffffffffffffffffffffffffff19166020820180517bffffffffffffffffffffffffffffffffffffffffffffffffffffffff838183161783525050505061030f565b5050565b60008151905060006a636f6e736f6c652e6c6f679050602083016000808483855afa5050505050565b610341816104ac565b82525050565b60006103528261043a565b61035c8185610445565b935061036c8185602086016104e8565b6103758161054a565b840191505092915050565b610389816104de565b82525050565b600060208201905081810360008301526103a98184610347565b905092915050565b600060608201905081810360008301526103cb8186610347565b90506103da6020830185610338565b6103e76040830184610380565b949350505050565b600060408201905081810360008301526104098185610347565b90506104186020830184610380565b9392505050565b60006020820190506104346000830184610380565b92915050565b600081519050919050565b600082825260208201905092915050565b6000610461826104de565b915061046c836104de565b9250827fffffffffffffffffffffffffffffffffffffffffffffffffffffffffffffffff038211156104a1576104a061051b565b5b828201905092915050565b60006104b7826104be565b9050919050565b600073ffffffffffffffffffffffffffffffffffffffff82169050919050565b6000819050919050565b60005b838110156105065780820151818401526020810190506104eb565b83811115610515576000848401525b50505050565b7f4e487b7100000000000000000000000000000000000000000000000000000000600052601160045260246000fd5b6000601f19601f830116905091905056fe596f7527766520676f7420256420746f74616c2077617665732e204e6f696365212121576176652073656e742120546865206c61737420706572736f6e20746f20776176652077617320257320617420626c6f636b206e756d6265722025642ea2646970667358221220c2473ad16528ea3370bf7dd310355ed8717b2642b52913185354cc7c9e7dfdfa64736f6c6343000804003349276d206120736d61727420636f6e74726163742e204c6f6f6b206174206d65206265696e6720737570657220736d61727421",
  "linkReferences": {},
  "deployedLinkReferences": {}
}